{
  "_format": "hh-sol-artifact-1",
  "contractName": "Voting",
  "sourceName": "contracts/Voting.sol",
  "abi": [
    {
      "inputs": [],
      "stateMutability": "nonpayable",
      "type": "constructor"
    },
    {
      "anonymous": false,
      "inputs": [
        {
          "indexed": true,
          "internalType": "uint256",
          "name": "electionId",
          "type": "uint256"
        },
        {
          "indexed": false,
          "internalType": "string",
          "name": "name",
          "type": "string"
        }
      ],
      "name": "CandidateAdded",
      "type": "event"
    },
    {
      "anonymous": false,
      "inputs": [
        {
          "indexed": true,
          "internalType": "uint256",
          "name": "electionId",
          "type": "uint256"
        },
        {
          "indexed": false,
          "internalType": "string",
          "name": "name",
          "type": "string"
        }
      ],
      "name": "ElectionCreated",
      "type": "event"
    },
    {
      "anonymous": false,
      "inputs": [
        {
          "indexed": true,
          "internalType": "uint256",
          "name": "electionId",
          "type": "uint256"
        }
      ],
      "name": "ElectionEnded",
      "type": "event"
    },
    {
      "anonymous": false,
      "inputs": [
        {
          "indexed": true,
          "internalType": "uint256",
          "name": "electionId",
          "type": "uint256"
        },
        {
          "indexed": false,
          "internalType": "uint256",
          "name": "duration",
          "type": "uint256"
        }
      ],
      "name": "ElectionStarted",
      "type": "event"
    },
    {
      "anonymous": false,
      "inputs": [
        {
          "indexed": true,
          "internalType": "uint256",
          "name": "electionId",
          "type": "uint256"
        },
        {
          "indexed": true,
          "internalType": "address",
          "name": "voter",
          "type": "address"
        },
        {
          "indexed": false,
          "internalType": "uint256",
          "name": "candidateId",
          "type": "uint256"
        }
      ],
      "name": "Voted",
      "type": "event"
    },
    {
      "inputs": [
        {
          "internalType": "string",
          "name": "_name",
          "type": "string"
        }
      ],
      "name": "addCandidate",
      "outputs": [],
      "stateMutability": "nonpayable",
      "type": "function"
    },
    {
      "inputs": [
        {
          "internalType": "string",
          "name": "_name",
          "type": "string"
        }
      ],
      "name": "createElection",
      "outputs": [],
      "stateMutability": "nonpayable",
      "type": "function"
    },
    {
      "inputs": [],
      "name": "currentElectionId",
      "outputs": [
        {
          "internalType": "uint256",
          "name": "",
          "type": "uint256"
        }
      ],
      "stateMutability": "view",
      "type": "function"
    },
    {
      "inputs": [
        {
          "internalType": "uint256",
          "name": "",
          "type": "uint256"
        },
        {
          "internalType": "uint256",
          "name": "",
          "type": "uint256"
        }
      ],
      "name": "electionCandidates",
      "outputs": [
        {
          "internalType": "uint256",
          "name": "id",
          "type": "uint256"
        },
        {
          "internalType": "string",
          "name": "name",
          "type": "string"
        },
        {
          "internalType": "uint256",
          "name": "voteCount",
          "type": "uint256"
        }
      ],
      "stateMutability": "view",
      "type": "function"
    },
    {
      "inputs": [],
      "name": "electionCount",
      "outputs": [
        {
          "internalType": "uint256",
          "name": "",
          "type": "uint256"
        }
      ],
      "stateMutability": "view",
      "type": "function"
    },
    {
      "inputs": [
        {
          "internalType": "uint256",
          "name": "",
          "type": "uint256"
        }
      ],
      "name": "elections",
      "outputs": [
        {
          "internalType": "uint256",
          "name": "id",
          "type": "uint256"
        },
        {
          "internalType": "string",
          "name": "name",
          "type": "string"
        },
        {
          "internalType": "uint256",
          "name": "startTime",
          "type": "uint256"
        },
        {
          "internalType": "uint256",
          "name": "endTime",
          "type": "uint256"
        },
        {
          "internalType": "bool",
          "name": "started",
          "type": "bool"
        },
        {
          "internalType": "bool",
          "name": "ended",
          "type": "bool"
        },
        {
          "internalType": "uint256",
          "name": "totalVotes",
          "type": "uint256"
        }
      ],
      "stateMutability": "view",
      "type": "function"
    },
    {
      "inputs": [],
      "name": "endElection",
      "outputs": [],
      "stateMutability": "nonpayable",
      "type": "function"
    },
    {
      "inputs": [],
      "name": "getAllCandidates",
      "outputs": [
        {
          "components": [
            {
              "internalType": "uint256",
              "name": "id",
              "type": "uint256"
            },
            {
              "internalType": "string",
              "name": "name",
              "type": "string"
            },
            {
              "internalType": "uint256",
              "name": "voteCount",
              "type": "uint256"
            }
          ],
          "internalType": "struct Voting.Candidate[]",
          "name": "",
          "type": "tuple[]"
        }
      ],
      "stateMutability": "view",
      "type": "function"
    },
    {
      "inputs": [],
      "name": "getAllElections",
      "outputs": [
        {
          "components": [
            {
              "internalType": "uint256",
              "name": "id",
              "type": "uint256"
            },
            {
              "internalType": "string",
              "name": "name",
              "type": "string"
            },
            {
              "internalType": "uint256",
              "name": "startTime",
              "type": "uint256"
            },
            {
              "internalType": "uint256",
              "name": "endTime",
              "type": "uint256"
            },
            {
              "internalType": "bool",
              "name": "started",
              "type": "bool"
            },
            {
              "internalType": "bool",
              "name": "ended",
              "type": "bool"
            },
            {
              "internalType": "uint256",
              "name": "totalVotes",
              "type": "uint256"
            }
          ],
          "internalType": "struct Voting.Election[]",
          "name": "",
          "type": "tuple[]"
        }
      ],
      "stateMutability": "view",
      "type": "function"
    },
    {
      "inputs": [],
      "name": "getCurrentElection",
      "outputs": [
        {
          "internalType": "uint256",
          "name": "id",
          "type": "uint256"
        },
        {
          "internalType": "string",
          "name": "name",
          "type": "string"
        },
        {
          "internalType": "uint256",
          "name": "startTime",
          "type": "uint256"
        },
        {
          "internalType": "uint256",
          "name": "endTime",
          "type": "uint256"
        },
        {
          "internalType": "bool",
          "name": "started",
          "type": "bool"
        },
        {
          "internalType": "bool",
          "name": "ended",
          "type": "bool"
        },
        {
          "internalType": "uint256",
          "name": "totalVotes",
          "type": "uint256"
        },
        {
          "internalType": "uint256",
          "name": "candidateCount",
          "type": "uint256"
        }
      ],
      "stateMutability": "view",
      "type": "function"
    },
    {
      "inputs": [
        {
          "internalType": "uint256",
          "name": "_electionId",
          "type": "uint256"
        }
      ],
      "name": "getElection",
      "outputs": [
        {
          "internalType": "uint256",
          "name": "id",
          "type": "uint256"
        },
        {
          "internalType": "string",
          "name": "name",
          "type": "string"
        },
        {
          "internalType": "uint256",
          "name": "startTime",
          "type": "uint256"
        },
        {
          "internalType": "uint256",
          "name": "endTime",
          "type": "uint256"
        },
        {
          "internalType": "bool",
          "name": "started",
          "type": "bool"
        },
        {
          "internalType": "bool",
          "name": "ended",
          "type": "bool"
        },
        {
          "internalType": "uint256",
          "name": "totalVotes",
          "type": "uint256"
        }
      ],
      "stateMutability": "view",
      "type": "function"
    },
    {
      "inputs": [
        {
          "internalType": "uint256",
          "name": "_electionId",
          "type": "uint256"
        }
      ],
      "name": "getElectionCandidates",
      "outputs": [
        {
          "components": [
            {
              "internalType": "uint256",
              "name": "id",
              "type": "uint256"
            },
            {
              "internalType": "string",
              "name": "name",
              "type": "string"
            },
            {
              "internalType": "uint256",
              "name": "voteCount",
              "type": "uint256"
            }
          ],
          "internalType": "struct Voting.Candidate[]",
          "name": "",
          "type": "tuple[]"
        }
      ],
      "stateMutability": "view",
      "type": "function"
    },
    {
      "inputs": [],
      "name": "getRemainingTime",
      "outputs": [
        {
          "internalType": "uint256",
          "name": "",
          "type": "uint256"
        }
      ],
      "stateMutability": "view",
      "type": "function"
    },
    {
      "inputs": [
        {
          "internalType": "uint256",
          "name": "_electionId",
          "type": "uint256"
        },
        {
          "internalType": "address",
          "name": "_voter",
          "type": "address"
        }
      ],
      "name": "hasUserVoted",
      "outputs": [
        {
          "internalType": "bool",
          "name": "",
          "type": "bool"
        }
      ],
      "stateMutability": "view",
      "type": "function"
    },
    {
      "inputs": [
        {
          "internalType": "uint256",
          "name": "",
          "type": "uint256"
        },
        {
          "internalType": "address",
          "name": "",
          "type": "address"
        }
      ],
      "name": "hasVoted",
      "outputs": [
        {
          "internalType": "bool",
          "name": "",
          "type": "bool"
        }
      ],
      "stateMutability": "view",
      "type": "function"
    },
    {
      "inputs": [],
      "name": "owner",
      "outputs": [
        {
          "internalType": "address",
          "name": "",
          "type": "address"
        }
      ],
      "stateMutability": "view",
      "type": "function"
    },
    {
      "inputs": [
        {
          "internalType": "uint256",
          "name": "_durationInMinutes",
          "type": "uint256"
        }
      ],
      "name": "startElection",
      "outputs": [],
      "stateMutability": "nonpayable",
      "type": "function"
    },
    {
      "inputs": [
        {
          "internalType": "uint256",
          "name": "_candidateId",
          "type": "uint256"
        }
      ],
      "name": "vote",
      "outputs": [],
      "stateMutability": "nonpayable",
      "type": "function"
    }
  ],
  "bytecode": "0x608060405234801561001057600080fd5b50336000806101000a81548173ffffffffffffffffffffffffffffffffffffffff021916908373ffffffffffffffffffffffffffffffffffffffff1602179055506000600181905550613183806100686000396000f3fe608060405234801561001057600080fd5b50600436106101165760003560e01c80637fd5f268116100a25780639d710777116100715780639d710777146102c1578063a42c56f7146102f7578063b0b0e68d14610329578063dc296ae11461034e578063efb98bcf1461037e57610116565b80637fd5f268146102495780638da5cb5b1461026757806398ecf2a014610285578063997d2830146102a357610116565b8063462e91ec116100e9578063462e91ec146101a157806359f78468146101bd5780635e12845e146101c75780635e6fef01146101f75780636d32dc4b1461022d57610116565b80630121b93f1461011b57806315cf4a5f146101375780632e6997fe146101535780634385963214610171575b600080fd5b61013560048036038101906101309190611df9565b61039c565b005b610151600480360381019061014c9190611f6c565b6107e5565b005b61015b610b18565b6040516101689190612155565b60405180910390f35b61018b600480360381019061018691906121d5565b610c75565b6040516101989190612230565b60405180910390f35b6101bb60048036038101906101b69190611f6c565b610ca4565b005b6101c5610eac565b005b6101e160048036038101906101dc9190611df9565b6110ac565b6040516101ee9190612155565b60405180910390f35b610211600480360381019061020c9190611df9565b61120a565b60405161022497969594939291906122a4565b60405180910390f35b61024760048036038101906102429190611df9565b6112ee565b005b61025161153e565b60405161025e9190612487565b60405180910390f35b61026f6116ee565b60405161027c91906124b8565b60405180910390f35b61028d611712565b60405161029a91906124d3565b60405180910390f35b6102ab611718565b6040516102b891906124d3565b60405180910390f35b6102db60048036038101906102d69190611df9565b61171e565b6040516102ee97969594939291906122a4565b60405180910390f35b610311600480360381019061030c91906124ee565b6118bf565b6040516103209392919061252e565b60405180910390f35b61033161198e565b60405161034598979695949392919061256c565b60405180910390f35b610368600480360381019061036391906121d5565b611b4b565b6040516103759190612230565b60405180910390f35b610386611bf9565b60405161039391906124d3565b60405180910390f35b6000600154116103e1576040517f08c379a00000000000000000000000000000000000000000000000000000000081526004016103d89061263d565b60405180910390fd5b600060025490506004600082815260200190815260200160002060040160009054906101000a900460ff1661044b576040517f08c379a0000000000000000000000000000000000000000000000000000000008152600401610442906126a9565b60405180910390fd5b6004600082815260200190815260200160002060040160019054906101000a900460ff16156104af576040517f08c379a00000000000000000000000000000000000000000000000000000000081526004016104a690612715565b60405180910390fd5b60046000828152602001908152602001600020600301544210610507576040517f08c379a00000000000000000000000000000000000000000000000000000000081526004016104fe90612781565b60405180910390fd5b6005600082815260200190815260200160002060003373ffffffffffffffffffffffffffffffffffffffff1673ffffffffffffffffffffffffffffffffffffffff16815260200190815260200160002060009054906101000a900460ff16156105a5576040517f08c379a000000000000000000000000000000000000000000000000000000000815260040161059c906127ed565b60405180910390fd5b600360008281526020019081526020016000208054905082106105fd576040517f08c379a00000000000000000000000000000000000000000000000000000000081526004016105f490612859565b60405180910390fd5b600460008281526020019081526020016000206003015442106106b15760016004600083815260200190815260200160002060040160016101000a81548160ff021916908315150217905550807f562cd572b2ba3b666cd989fc4ca98419ec81e75f04528df9d9d76fdb7807ee7160405160405180910390a26040517f08c379a00000000000000000000000000000000000000000000000000000000081526004016106a890612715565b60405180910390fd5b60016005600083815260200190815260200160002060003373ffffffffffffffffffffffffffffffffffffffff1673ffffffffffffffffffffffffffffffffffffffff16815260200190815260200160002060006101000a81548160ff02191690831515021790555060036000828152602001908152602001600020828154811061073f5761073e612879565b5b90600052602060002090600302016002016000815480929190610761906128d7565b919050555060046000828152602001908152602001600020600501600081548092919061078d906128d7565b91905055503373ffffffffffffffffffffffffffffffffffffffff16817f1abe610cf2bf87e57dcc1181fcf5ac0934e843d8344ab9eed6e86c799f62585e846040516107d991906124d3565b60405180910390a35050565b60008054906101000a900473ffffffffffffffffffffffffffffffffffffffff1673ffffffffffffffffffffffffffffffffffffffff163373ffffffffffffffffffffffffffffffffffffffff1614610873576040517f08c379a000000000000000000000000000000000000000000000000000000000815260040161086a9061296b565b60405180910390fd5b60008151116108b7576040517f08c379a00000000000000000000000000000000000000000000000000000000081526004016108ae906129d7565b60405180910390fd5b600060015411156109e6576000600180546108d291906129f7565b90506004600082815260200190815260200160002060040160009054906101000a900460ff16801561092557506004600082815260200190815260200160002060040160019054906101000a900460ff16155b156109e457600460008281526020019081526020016000206003015442106109a85760016004600083815260200190815260200160002060040160016101000a81548160ff021916908315150217905550807f562cd572b2ba3b666cd989fc4ca98419ec81e75f04528df9d9d76fdb7807ee7160405160405180910390a26109e3565b6040517f08c379a00000000000000000000000000000000000000000000000000000000081526004016109da90612a9d565b60405180910390fd5b5b505b600060015490506040518060e001604052808281526020018381526020016000815260200160008152602001600015158152602001600015158152602001600081525060046000838152602001908152602001600020600082015181600001556020820151816001019081610a5b9190612cc9565b50604082015181600201556060820151816003015560808201518160040160006101000a81548160ff02191690831515021790555060a08201518160040160016101000a81548160ff02191690831515021790555060c082015181600501559050508060028190555060016000815480929190610ad7906128d7565b9190505550807f52be7c4e77b4de76b7607d621492061fe13b58597e72dfb5e51ab8f6187ed14183604051610b0c9190612d9b565b60405180910390a25050565b6060600060015411610b5f576040517f08c379a0000000000000000000000000000000000000000000000000000000008152600401610b5690612e09565b60405180910390fd5b600360006002548152602001908152602001600020805480602002602001604051908101604052809291908181526020016000905b82821015610c6c578382906000526020600020906003020160405180606001604052908160008201548152602001600182018054610bd190612aec565b80601f0160208091040260200160405190810160405280929190818152602001828054610bfd90612aec565b8015610c4a5780601f10610c1f57610100808354040283529160200191610c4a565b820191906000526020600020905b815481529060010190602001808311610c2d57829003601f168201915b5050505050815260200160028201548152505081526020019060010190610b94565b50505050905090565b60056020528160005260406000206020528060005260406000206000915091509054906101000a900460ff1681565b60008054906101000a900473ffffffffffffffffffffffffffffffffffffffff1673ffffffffffffffffffffffffffffffffffffffff163373ffffffffffffffffffffffffffffffffffffffff1614610d32576040517f08c379a0000000000000000000000000000000000000000000000000000000008152600401610d299061296b565b60405180910390fd5b600060015411610d77576040517f08c379a0000000000000000000000000000000000000000000000000000000008152600401610d6e90612e75565b60405180910390fd5b600060025490506004600082815260200190815260200160002060040160009054906101000a900460ff1615610de2576040517f08c379a0000000000000000000000000000000000000000000000000000000008152600401610dd990612f07565b60405180910390fd5b60006003600083815260200190815260200160002090508060405180606001604052808380549050815260200185815260200160008152509080600181540180825580915050600190039060005260206000209060030201600090919091909150600082015181600001556020820151816001019081610e629190612cc9565b50604082015181600201555050817fe83b2a43e7e82d975c8a0a6d2f045153c869e111136a34d1889ab7b598e396a384604051610e9f9190612d9b565b60405180910390a2505050565b60008054906101000a900473ffffffffffffffffffffffffffffffffffffffff1673ffffffffffffffffffffffffffffffffffffffff163373ffffffffffffffffffffffffffffffffffffffff1614610f3a576040517f08c379a0000000000000000000000000000000000000000000000000000000008152600401610f319061296b565b60405180910390fd5b600060015411610f7f576040517f08c379a0000000000000000000000000000000000000000000000000000000008152600401610f769061263d565b60405180910390fd5b600060025490506004600082815260200190815260200160002060040160009054906101000a900460ff16610fe9576040517f08c379a0000000000000000000000000000000000000000000000000000000008152600401610fe0906126a9565b60405180910390fd5b6004600082815260200190815260200160002060040160019054906101000a900460ff161561104d576040517f08c379a000000000000000000000000000000000000000000000000000000000815260040161104490612f73565b60405180910390fd5b60016004600083815260200190815260200160002060040160016101000a81548160ff021916908315150217905550807f562cd572b2ba3b666cd989fc4ca98419ec81e75f04528df9d9d76fdb7807ee7160405160405180910390a250565b60608160015481106110f3576040517f08c379a00000000000000000000000000000000000000000000000000000000081526004016110ea90612fdf565b60405180910390fd5b60036000848152602001908152602001600020805480602002602001604051908101604052809291908181526020016000905b828210156111fe57838290600052602060002090600302016040518060600160405290816000820154815260200160018201805461116390612aec565b80601f016020809104026020016040519081016040528092919081815260200182805461118f90612aec565b80156111dc5780601f106111b1576101008083540402835291602001916111dc565b820191906000526020600020905b8154815290600101906020018083116111bf57829003601f168201915b5050505050815260200160028201548152505081526020019060010190611126565b50505050915050919050565b600460205280600052604060002060009150905080600001549080600101805461123390612aec565b80601f016020809104026020016040519081016040528092919081815260200182805461125f90612aec565b80156112ac5780601f10611281576101008083540402835291602001916112ac565b820191906000526020600020905b81548152906001019060200180831161128f57829003601f168201915b5050505050908060020154908060030154908060040160009054906101000a900460ff16908060040160019054906101000a900460ff16908060050154905087565b60008054906101000a900473ffffffffffffffffffffffffffffffffffffffff1673ffffffffffffffffffffffffffffffffffffffff163373ffffffffffffffffffffffffffffffffffffffff161461137c576040517f08c379a00000000000000000000000000000000000000000000000000000000081526004016113739061296b565b60405180910390fd5b6000600154116113c1576040517f08c379a00000000000000000000000000000000000000000000000000000000081526004016113b890612e75565b60405180910390fd5b600060025490506004600082815260200190815260200160002060040160009054906101000a900460ff161561142c576040517f08c379a00000000000000000000000000000000000000000000000000000000081526004016114239061304b565b60405180910390fd5b600260036000838152602001908152602001600020805490501015611486576040517f08c379a000000000000000000000000000000000000000000000000000000000815260040161147d906130b7565b60405180910390fd5b426004600083815260200190815260200160002060020181905550603c826114ae91906130d7565b426114b99190613119565b600460008381526020019081526020016000206003018190555060016004600083815260200190815260200160002060040160006101000a81548160ff021916908315150217905550807fff6a30dd22f5e8b783044c7d895a6e8592b55c56f139978d44dc39daf596731f8360405161153291906124d3565b60405180910390a25050565b6060600060015467ffffffffffffffff81111561155e5761155d611e41565b5b60405190808252806020026020018201604052801561159757816020015b611584611d6e565b81526020019060019003908161157c5790505b50905060005b6001548110156116e657600460008281526020019081526020016000206040518060e0016040529081600082015481526020016001820180546115df90612aec565b80601f016020809104026020016040519081016040528092919081815260200182805461160b90612aec565b80156116585780601f1061162d57610100808354040283529160200191611658565b820191906000526020600020905b81548152906001019060200180831161163b57829003601f168201915b5050505050815260200160028201548152602001600382015481526020016004820160009054906101000a900460ff161515151581526020016004820160019054906101000a900460ff161515151581526020016005820154815250508282815181106116c8576116c7612879565b5b602002602001018190525080806116de906128d7565b91505061159d565b508091505090565b60008054906101000a900473ffffffffffffffffffffffffffffffffffffffff1681565b60025481565b60015481565b60006060600080600080600087600154811061176f576040517f08c379a000000000000000000000000000000000000000000000000000000000815260040161176690612fdf565b60405180910390fd5b6000600460008b81526020019081526020016000206040518060e0016040529081600082015481526020016001820180546117a990612aec565b80601f01602080910402602001604051908101604052809291908181526020018280546117d590612aec565b80156118225780601f106117f757610100808354040283529160200191611822565b820191906000526020600020905b81548152906001019060200180831161180557829003601f168201915b5050505050815260200160028201548152602001600382015481526020016004820160009054906101000a900460ff161515151581526020016004820160019054906101000a900460ff161515151581526020016005820154815250509050806000015181602001518260400151836060015184608001518560a001518660c0015198509850985098509850985098505050919395979092949650565b600360205281600052604060002081815481106118db57600080fd5b90600052602060002090600302016000915091505080600001549080600101805461190590612aec565b80601f016020809104026020016040519081016040528092919081815260200182805461193190612aec565b801561197e5780601f106119535761010080835404028352916020019161197e565b820191906000526020600020905b81548152906001019060200180831161196157829003601f168201915b5050505050908060020154905083565b600060606000806000806000806000600154116119e0576040517f08c379a00000000000000000000000000000000000000000000000000000000081526004016119d790612e09565b60405180910390fd5b60006004600060025481526020019081526020016000206040518060e001604052908160008201548152602001600182018054611a1c90612aec565b80601f0160208091040260200160405190810160405280929190818152602001828054611a4890612aec565b8015611a955780601f10611a6a57610100808354040283529160200191611a95565b820191906000526020600020905b815481529060010190602001808311611a7857829003601f168201915b5050505050815260200160028201548152602001600382015481526020016004820160009054906101000a900460ff161515151581526020016004820160019054906101000a900460ff161515151581526020016005820154815250509050806000015181602001518260400151836060015184608001518560a001518660c001516003600060025481526020019081526020016000208054905098509850985098509850985098509850509091929394959697565b6000826001548110611b92576040517f08c379a0000000000000000000000000000000000000000000000000000000008152600401611b8990612fdf565b60405180910390fd5b6005600085815260200190815260200160002060008473ffffffffffffffffffffffffffffffffffffffff1673ffffffffffffffffffffffffffffffffffffffff16815260200190815260200160002060009054906101000a900460ff1691505092915050565b60008060015403611c0d5760009050611d6b565b60006004600060025481526020019081526020016000206040518060e001604052908160008201548152602001600182018054611c4990612aec565b80601f0160208091040260200160405190810160405280929190818152602001828054611c7590612aec565b8015611cc25780601f10611c9757610100808354040283529160200191611cc2565b820191906000526020600020905b815481529060010190602001808311611ca557829003601f168201915b5050505050815260200160028201548152602001600382015481526020016004820160009054906101000a900460ff161515151581526020016004820160019054906101000a900460ff16151515158152602001600582015481525050905080608001511580611d3357508060a001515b15611d42576000915050611d6b565b80606001514210611d57576000915050611d6b565b428160600151611d6791906129f7565b9150505b90565b6040518060e0016040528060008152602001606081526020016000815260200160008152602001600015158152602001600015158152602001600081525090565b6000604051905090565b600080fd5b600080fd5b6000819050919050565b611dd681611dc3565b8114611de157600080fd5b50565b600081359050611df381611dcd565b92915050565b600060208284031215611e0f57611e0e611db9565b5b6000611e1d84828501611de4565b91505092915050565b600080fd5b600080fd5b6000601f19601f8301169050919050565b7f4e487b7100000000000000000000000000000000000000000000000000000000600052604160045260246000fd5b611e7982611e30565b810181811067ffffffffffffffff82111715611e9857611e97611e41565b5b80604052505050565b6000611eab611daf565b9050611eb78282611e70565b919050565b600067ffffffffffffffff821115611ed757611ed6611e41565b5b611ee082611e30565b9050602081019050919050565b82818337600083830152505050565b6000611f0f611f0a84611ebc565b611ea1565b905082815260208101848484011115611f2b57611f2a611e2b565b5b611f36848285611eed565b509392505050565b600082601f830112611f5357611f52611e26565b5b8135611f63848260208601611efc565b91505092915050565b600060208284031215611f8257611f81611db9565b5b600082013567ffffffffffffffff811115611fa057611f9f611dbe565b5b611fac84828501611f3e565b91505092915050565b600081519050919050565b600082825260208201905092915050565b6000819050602082019050919050565b611fea81611dc3565b82525050565b600081519050919050565b600082825260208201905092915050565b60005b8381101561202a57808201518184015260208101905061200f565b60008484015250505050565b600061204182611ff0565b61204b8185611ffb565b935061205b81856020860161200c565b61206481611e30565b840191505092915050565b60006060830160008301516120876000860182611fe1565b506020830151848203602086015261209f8282612036565b91505060408301516120b46040860182611fe1565b508091505092915050565b60006120cb838361206f565b905092915050565b6000602082019050919050565b60006120eb82611fb5565b6120f58185611fc0565b93508360208202850161210785611fd1565b8060005b85811015612143578484038952815161212485826120bf565b945061212f836120d3565b925060208a0199505060018101905061210b565b50829750879550505050505092915050565b6000602082019050818103600083015261216f81846120e0565b905092915050565b600073ffffffffffffffffffffffffffffffffffffffff82169050919050565b60006121a282612177565b9050919050565b6121b281612197565b81146121bd57600080fd5b50565b6000813590506121cf816121a9565b92915050565b600080604083850312156121ec576121eb611db9565b5b60006121fa85828601611de4565b925050602061220b858286016121c0565b9150509250929050565b60008115159050919050565b61222a81612215565b82525050565b60006020820190506122456000830184612221565b92915050565b61225481611dc3565b82525050565b600082825260208201905092915050565b600061227682611ff0565b612280818561225a565b935061229081856020860161200c565b61229981611e30565b840191505092915050565b600060e0820190506122b9600083018a61224b565b81810360208301526122cb818961226b565b90506122da604083018861224b565b6122e7606083018761224b565b6122f46080830186612221565b61230160a0830185612221565b61230e60c083018461224b565b98975050505050505050565b600081519050919050565b600082825260208201905092915050565b6000819050602082019050919050565b61234f81612215565b82525050565b600060e08301600083015161236d6000860182611fe1565b50602083015184820360208601526123858282612036565b915050604083015161239a6040860182611fe1565b5060608301516123ad6060860182611fe1565b5060808301516123c06080860182612346565b5060a08301516123d360a0860182612346565b5060c08301516123e660c0860182611fe1565b508091505092915050565b60006123fd8383612355565b905092915050565b6000602082019050919050565b600061241d8261231a565b6124278185612325565b93508360208202850161243985612336565b8060005b85811015612475578484038952815161245685826123f1565b945061246183612405565b925060208a0199505060018101905061243d565b50829750879550505050505092915050565b600060208201905081810360008301526124a18184612412565b905092915050565b6124b281612197565b82525050565b60006020820190506124cd60008301846124a9565b92915050565b60006020820190506124e8600083018461224b565b92915050565b6000806040838503121561250557612504611db9565b5b600061251385828601611de4565b925050602061252485828601611de4565b9150509250929050565b6000606082019050612543600083018661224b565b8181036020830152612555818561226b565b9050612564604083018461224b565b949350505050565b600061010082019050612582600083018b61224b565b8181036020830152612594818a61226b565b90506125a3604083018961224b565b6125b0606083018861224b565b6125bd6080830187612221565b6125ca60a0830186612221565b6125d760c083018561224b565b6125e460e083018461224b565b9998505050505050505050565b7f4e6f20656c656374696f6e7320617661696c61626c6500000000000000000000600082015250565b600061262760168361225a565b9150612632826125f1565b602082019050919050565b600060208201905081810360008301526126568161261a565b9050919050565b7f456c656374696f6e206e6f742073746172746564000000000000000000000000600082015250565b600061269360148361225a565b915061269e8261265d565b602082019050919050565b600060208201905081810360008301526126c281612686565b9050919050565b7f456c656374696f6e2068617320656e6465640000000000000000000000000000600082015250565b60006126ff60128361225a565b915061270a826126c9565b602082019050919050565b6000602082019050818103600083015261272e816126f2565b9050919050565b7f456c656374696f6e2074696d6520657870697265640000000000000000000000600082015250565b600061276b60158361225a565b915061277682612735565b602082019050919050565b6000602082019050818103600083015261279a8161275e565b9050919050565b7f596f75206861766520616c726561647920766f74656400000000000000000000600082015250565b60006127d760168361225a565b91506127e2826127a1565b602082019050919050565b60006020820190508181036000830152612806816127ca565b9050919050565b7f496e76616c69642063616e646964617465204944000000000000000000000000600082015250565b600061284360148361225a565b915061284e8261280d565b602082019050919050565b6000602082019050818103600083015261287281612836565b9050919050565b7f4e487b7100000000000000000000000000000000000000000000000000000000600052603260045260246000fd5b7f4e487b7100000000000000000000000000000000000000000000000000000000600052601160045260246000fd5b60006128e282611dc3565b91507fffffffffffffffffffffffffffffffffffffffffffffffffffffffffffffffff8203612914576129136128a8565b5b600182019050919050565b7f4f6e6c79206f776e65722063616e2063616c6c20746869730000000000000000600082015250565b600061295560188361225a565b91506129608261291f565b602082019050919050565b6000602082019050818103600083015261298481612948565b9050919050565b7f456c656374696f6e206e616d652063616e6e6f7420626520656d707479000000600082015250565b60006129c1601d8361225a565b91506129cc8261298b565b602082019050919050565b600060208201905081810360008301526129f0816129b4565b9050919050565b6000612a0282611dc3565b9150612a0d83611dc3565b9250828203905081811115612a2557612a246128a8565b5b92915050565b7f50726576696f757320656c656374696f6e206973207374696c6c20616374697660008201527f6500000000000000000000000000000000000000000000000000000000000000602082015250565b6000612a8760218361225a565b9150612a9282612a2b565b604082019050919050565b60006020820190508181036000830152612ab681612a7a565b9050919050565b7f4e487b7100000000000000000000000000000000000000000000000000000000600052602260045260246000fd5b60006002820490506001821680612b0457607f821691505b602082108103612b1757612b16612abd565b5b50919050565b60008190508160005260206000209050919050565b60006020601f8301049050919050565b600082821b905092915050565b600060088302612b7f7fffffffffffffffffffffffffffffffffffffffffffffffffffffffffffffffff82612b42565b612b898683612b42565b95508019841693508086168417925050509392505050565b6000819050919050565b6000612bc6612bc1612bbc84611dc3565b612ba1565b611dc3565b9050919050565b6000819050919050565b612be083612bab565b612bf4612bec82612bcd565b848454612b4f565b825550505050565b600090565b612c09612bfc565b612c14818484612bd7565b505050565b5b81811015612c3857612c2d600082612c01565b600181019050612c1a565b5050565b601f821115612c7d57612c4e81612b1d565b612c5784612b32565b81016020851015612c66578190505b612c7a612c7285612b32565b830182612c19565b50505b505050565b600082821c905092915050565b6000612ca060001984600802612c82565b1980831691505092915050565b6000612cb98383612c8f565b9150826002028217905092915050565b612cd282611ff0565b67ffffffffffffffff811115612ceb57612cea611e41565b5b612cf58254612aec565b612d00828285612c3c565b600060209050601f831160018114612d335760008415612d21578287015190505b612d2b8582612cad565b865550612d93565b601f198416612d4186612b1d565b60005b82811015612d6957848901518255600182019150602085019450602081019050612d44565b86831015612d865784890151612d82601f891682612c8f565b8355505b6001600288020188555050505b505050505050565b60006020820190508181036000830152612db5818461226b565b905092915050565b7f4e6f20656c656374696f6e732063726561746564000000000000000000000000600082015250565b6000612df360148361225a565b9150612dfe82612dbd565b602082019050919050565b60006020820190508181036000830152612e2281612de6565b9050919050565b7f43726561746520616e20656c656374696f6e2066697273740000000000000000600082015250565b6000612e5f60188361225a565b9150612e6a82612e29565b602082019050919050565b60006020820190508181036000830152612e8e81612e52565b9050919050565b7f43616e6e6f74206164642063616e6469646174657320746f207374617274656460008201527f20656c656374696f6e0000000000000000000000000000000000000000000000602082015250565b6000612ef160298361225a565b9150612efc82612e95565b604082019050919050565b60006020820190508181036000830152612f2081612ee4565b9050919050565b7f456c656374696f6e20616c726561647920656e64656400000000000000000000600082015250565b6000612f5d60168361225a565b9150612f6882612f27565b602082019050919050565b60006020820190508181036000830152612f8c81612f50565b9050919050565b7f456c656374696f6e20646f6573206e6f74206578697374000000000000000000600082015250565b6000612fc960178361225a565b9150612fd482612f93565b602082019050919050565b60006020820190508181036000830152612ff881612fbc565b9050919050565b7f456c656374696f6e20616c726561647920737461727465640000000000000000600082015250565b600061303560188361225a565b915061304082612fff565b602082019050919050565b6000602082019050818103600083015261306481613028565b9050919050565b7f4e656564206174206c6561737420322063616e64696461746573000000000000600082015250565b60006130a1601a8361225a565b91506130ac8261306b565b602082019050919050565b600060208201905081810360008301526130d081613094565b9050919050565b60006130e282611dc3565b91506130ed83611dc3565b92508282026130fb81611dc3565b91508282048414831517613112576131116128a8565b5b5092915050565b600061312482611dc3565b915061312f83611dc3565b9250828201905080821115613147576131466128a8565b5b9291505056fea264697066735822122088270ca98661baf0dd5ece1b7c262989336d4ed894f4473ad263a4bc3a98ea2f64736f6c63430008130033",
  "linkReferences": {},
  "deployedLinkReferences": {}
}